{
  "contractName": "BattleshipGame",
  "abi": [
    {
      "inputs": [],
      "payable": false,
      "stateMutability": "nonpayable",
      "type": "constructor"
    },
    {
      "anonymous": false,
      "inputs": [
        {
          "indexed": false,
          "name": "",
          "type": "string"
        },
        {
          "indexed": false,
          "name": "",
          "type": "string"
        }
      ],
      "name": "LogShotResult",
      "type": "event"
    },
    {
      "anonymous": false,
      "inputs": [
        {
          "indexed": false,
          "name": "",
          "type": "string"
        },
        {
          "indexed": false,
          "name": "",
          "type": "string"
        }
      ],
      "name": "LogPlaceLegality",
      "type": "event"
    },
    {
      "anonymous": false,
      "inputs": [
        {
          "indexed": false,
          "name": "",
          "type": "uint256"
        },
        {
          "indexed": false,
          "name": "",
          "type": "uint256"
        }
      ],
      "name": "LogShipStartStop",
      "type": "event"
    },
    {
      "anonymous": false,
      "inputs": [
        {
          "indexed": false,
          "name": "",
          "type": "string"
        }
      ],
      "name": "LogAllShipsPlaced",
      "type": "event"
    },
    {
      "anonymous": false,
      "inputs": [
        {
          "indexed": false,
          "name": "",
          "type": "string"
        },
        {
          "indexed": false,
          "name": "",
          "type": "uint256"
        },
        {
          "indexed": false,
          "name": "",
          "type": "uint256"
        },
        {
          "indexed": false,
          "name": "",
          "type": "uint256"
        }
      ],
      "name": "LogShipPlaced",
      "type": "event"
    },
    {
      "anonymous": false,
      "inputs": [
        {
          "indexed": false,
          "name": "",
          "type": "string"
        },
        {
          "indexed": false,
          "name": "",
          "type": "string"
        },
        {
          "indexed": false,
          "name": "",
          "type": "uint256"
        }
      ],
      "name": "LogCurrentShip",
      "type": "event"
    },
    {
      "anonymous": false,
      "inputs": [
        {
          "indexed": false,
          "name": "",
          "type": "string"
        },
        {
          "indexed": false,
          "name": "",
          "type": "string"
        },
        {
          "indexed": false,
          "name": "",
          "type": "string"
        }
      ],
      "name": "LogShipSunk",
      "type": "event"
    },
    {
      "anonymous": false,
      "inputs": [
        {
          "indexed": false,
          "name": "",
          "type": "string"
        },
        {
          "indexed": false,
          "name": "",
          "type": "string"
        }
      ],
      "name": "LogGameWon",
      "type": "event"
    },
    {
      "anonymous": false,
      "inputs": [
        {
          "indexed": false,
          "name": "",
          "type": "string"
        },
        {
          "indexed": false,
          "name": "",
          "type": "string"
        }
      ],
      "name": "LogAllShipsSunk",
      "type": "event"
    },
    {
      "anonymous": false,
      "inputs": [
        {
          "indexed": false,
          "name": "",
          "type": "string"
        },
        {
          "indexed": false,
          "name": "",
          "type": "string"
        },
        {
          "indexed": false,
          "name": "",
          "type": "uint8"
        }
      ],
      "name": "LogCheckShipStatus",
      "type": "event"
    },
    {
      "constant": true,
      "inputs": [],
      "name": "returnPlayers",
      "outputs": [
        {
          "name": "",
          "type": "string"
        },
        {
          "name": "",
          "type": "string"
        }
      ],
      "payable": false,
      "stateMutability": "view",
      "type": "function"
    },
    {
      "constant": false,
      "inputs": [
        {
          "name": "playerName",
          "type": "string"
        }
      ],
      "name": "registerPlayer",
      "outputs": [
        {
          "name": "",
          "type": "address"
        }
      ],
      "payable": false,
      "stateMutability": "nonpayable",
      "type": "function"
    },
    {
      "constant": false,
      "inputs": [
        {
          "name": "x",
          "type": "uint8"
        },
        {
          "name": "y",
          "type": "uint8"
        },
        {
          "name": "shipType",
          "type": "string"
        },
        {
          "name": "playerName",
          "type": "string"
        },
        {
          "name": "direction",
          "type": "uint8"
        }
      ],
      "name": "placeShip",
      "outputs": [],
      "payable": false,
      "stateMutability": "nonpayable",
      "type": "function"
    },
    {
      "constant": false,
      "inputs": [
        {
          "name": "playerName_",
          "type": "string"
        }
      ],
      "name": "checkIfWon",
      "outputs": [
        {
          "name": "",
          "type": "bool"
        }
      ],
      "payable": false,
      "stateMutability": "nonpayable",
      "type": "function"
    },
    {
      "constant": false,
      "inputs": [
        {
          "name": "x",
          "type": "uint8"
        },
        {
          "name": "y",
          "type": "uint8"
        }
      ],
      "name": "fireShot",
      "outputs": [
        {
          "name": "",
          "type": "string"
        }
      ],
      "payable": false,
      "stateMutability": "nonpayable",
      "type": "function"
    },
    {
      "constant": false,
      "inputs": [],
      "name": "clearGame",
      "outputs": [],
      "payable": false,
      "stateMutability": "nonpayable",
      "type": "function"
    },
    {
      "constant": true,
      "inputs": [
        {
          "name": "playerName_",
          "type": "string"
        }
      ],
      "name": "returnBoard",
      "outputs": [
        {
          "name": "",
          "type": "uint256"
        }
      ],
      "payable": false,
      "stateMutability": "view",
      "type": "function"
    },
    {
      "constant": true,
      "inputs": [
        {
          "name": "a",
          "type": "string"
        },
        {
          "name": "b",
          "type": "string"
        }
      ],
      "name": "compareStrings",
      "outputs": [
        {
          "name": "",
          "type": "bool"
        }
      ],
      "payable": false,
      "stateMutability": "view",
      "type": "function"
    }
  ],
  "bytecode": "0x60806040523480156200001157600080fd5b50600160d460006101000a81548160ff021916908360028111156200003257fe5b02179055506040805190810160405280600781526020017f465249474154450000000000000000000000000000000000000000000000000081525060ce60000190805190602001906200008792919062000904565b50600160ce60010160006101000a81548160ff021916908360ff16021790555060ce60010160009054906101000a900460ff1660ce60010160016101000a81548160ff021916908360ff160217905550600060ce60010160026101000a81548160ff021916908360ff1602179055506040805190810160405280600981526020017f5355424d4152494e45000000000000000000000000000000000000000000000081525060d060000190805190602001906200014692919062000904565b50600260d060010160006101000a81548160ff021916908360ff16021790555060d060010160009054906101000a900460ff1660d060010160016101000a81548160ff021916908360ff160217905550600060d060010160026101000a81548160ff021916908360ff1602179055506040805190810160405280600981526020017f44455354524f594552000000000000000000000000000000000000000000000081525060d260000190805190602001906200020592919062000904565b50600360d260010160006101000a81548160ff021916908360ff16021790555060d260010160009054906101000a900460ff1660d260010160016101000a81548160ff021916908360ff160217905550600060d260010160026101000a81548160ff021916908360ff160217905550600060660160ce9080600181540180825580915050906001820390600052602060002090600202016000909192909190915060008201816000019080546001816001161561010002031660029004620002cf9291906200098b565b506001820160009054906101000a900460ff168160010160006101000a81548160ff021916908360ff1602179055506001820160019054906101000a900460ff168160010160016101000a81548160ff021916908360ff1602179055506001820160029054906101000a900460ff168160010160026101000a81548160ff021916908360ff1602179055506001820160039054906101000a900460ff168160010160036101000a81548160ff021916908360ff160217905550505050600060660160d09080600181540180825580915050906001820390600052602060002090600202016000909192909190915060008201816000019080546001816001161561010002031660029004620003e69291906200098b565b506001820160009054906101000a900460ff168160010160006101000a81548160ff021916908360ff1602179055506001820160019054906101000a900460ff168160010160016101000a81548160ff021916908360ff1602179055506001820160029054906101000a900460ff168160010160026101000a81548160ff021916908360ff1602179055506001820160039054906101000a900460ff168160010160036101000a81548160ff021916908360ff160217905550505050600060660160d29080600181540180825580915050906001820390600052602060002090600202016000909192909190915060008201816000019080546001816001161561010002031660029004620004fd9291906200098b565b506001820160009054906101000a900460ff168160010160006101000a81548160ff021916908360ff1602179055506001820160019054906101000a900460ff168160010160016101000a81548160ff021916908360ff1602179055506001820160029054906101000a900460ff168160010160026101000a81548160ff021916908360ff1602179055506001820160039054906101000a900460ff168160010160036101000a81548160ff021916908360ff160217905550505050606760660160ce9080600181540180825580915050906001820390600052602060002090600202016000909192909190915060008201816000019080546001816001161561010002031660029004620006149291906200098b565b506001820160009054906101000a900460ff168160010160006101000a81548160ff021916908360ff1602179055506001820160019054906101000a900460ff168160010160016101000a81548160ff021916908360ff1602179055506001820160029054906101000a900460ff168160010160026101000a81548160ff021916908360ff1602179055506001820160039054906101000a900460ff168160010160036101000a81548160ff021916908360ff160217905550505050606760660160d090806001815401808255809150509060018203906000526020600020906002020160009091929091909150600082018160000190805460018160011615610100020316600290046200072b9291906200098b565b506001820160009054906101000a900460ff168160010160006101000a81548160ff021916908360ff1602179055506001820160019054906101000a900460ff168160010160016101000a81548160ff021916908360ff1602179055506001820160029054906101000a900460ff168160010160026101000a81548160ff021916908360ff1602179055506001820160039054906101000a900460ff168160010160036101000a81548160ff021916908360ff160217905550505050606760660160d29080600181540180825580915050906001820390600052602060002090600202016000909192909190915060008201816000019080546001816001161561010002031660029004620008429291906200098b565b506001820160009054906101000a900460ff168160010160006101000a81548160ff021916908360ff1602179055506001820160019054906101000a900460ff168160010160016101000a81548160ff021916908360ff1602179055506001820160029054906101000a900460ff168160010160026101000a81548160ff021916908360ff1602179055506001820160039054906101000a900460ff168160010160036101000a81548160ff021916908360ff16021790555050505062000a41565b828054600181600116156101000203166002900490600052602060002090601f016020900481019282601f106200094757805160ff191683800117855562000978565b8280016001018555821562000978579182015b82811115620009775782518255916020019190600101906200095a565b5b50905062000987919062000a19565b5090565b828054600181600116156101000203166002900490600052602060002090601f016020900481019282601f10620009c6578054855562000a06565b8280016001018555821562000a0657600052602060002091601f016020900482015b8281111562000a05578254825591600101919060010190620009e8565b5b50905062000a15919062000a19565b5090565b62000a3e91905b8082111562000a3a57600081600090555060010162000a20565b5090565b90565b61390a8062000a516000396000f30060806040526004361061008e576000357c0100000000000000000000000000000000000000000000000000000000900463ffffffff1680632f1661e014610093578063b3446f8514610114578063bc2d105e146101bd578063bed34bba14610293578063d472b87f1461035a578063df195d0414610456578063f131a7ae1461050c578063f6a02cec14610523575b600080fd5b34801561009f57600080fd5b506100fa600480360381019080803590602001908201803590602001908080601f01602080910402602001604051908101604052809392919081815260200183838082843782019150505050505091929192905050506105a0565b604051808215151515815260200191505060405180910390f35b34801561012057600080fd5b5061017b600480360381019080803590602001908201803590602001908080601f0160208091040260200160405190810160405280939291908181526020018383808284378201915050505050509192919290505050610bc2565b604051808273ffffffffffffffffffffffffffffffffffffffff1673ffffffffffffffffffffffffffffffffffffffff16815260200191505060405180910390f35b3480156101c957600080fd5b50610291600480360381019080803560ff169060200190929190803560ff169060200190929190803590602001908201803590602001908080601f0160208091040260200160405190810160405280939291908181526020018383808284378201915050505050509192919290803590602001908201803590602001908080601f0160208091040260200160405190810160405280939291908181526020018383808284378201915050505050509192919290803560ff169060200190929190505050610e22565b005b34801561029f57600080fd5b50610340600480360381019080803590602001908201803590602001908080601f0160208091040260200160405190810160405280939291908181526020018383808284378201915050505050509192919290803590602001908201803590602001908080601f01602080910402602001604051908101604052809392919081815260200183838082843782019150505050505091929192905050506116c9565b604051808215151515815260200191505060405180910390f35b34801561036657600080fd5b5061036f6117a2565b604051808060200180602001838103835285818151815260200191508051906020019080838360005b838110156103b3578082015181840152602081019050610398565b50505050905090810190601f1680156103e05780820380516001836020036101000a031916815260200191505b50838103825284818151815260200191508051906020019080838360005b838110156104195780820151818401526020810190506103fe565b50505050905090810190601f1680156104465780820380516001836020036101000a031916815260200191505b5094505050505060405180910390f35b34801561046257600080fd5b50610491600480360381019080803560ff169060200190929190803560ff169060200190929190505050611923565b6040518080602001828103825283818151815260200191508051906020019080838360005b838110156104d15780820151818401526020810190506104b6565b50505050905090810190601f1680156104fe5780820380516001836020036101000a031916815260200191505b509250505060405180910390f35b34801561051857600080fd5b50610521612e29565b005b34801561052f57600080fd5b5061058a600480360381019080803590602001908201803590602001908080601f016020809104026020016040519081016040528093929190818152602001838380828437820191505050505050919291929050505061310a565b6040518082815260200191505060405180910390f35b6000806000600191506106508460006001018054600181600116156101000203166002900480601f0160208091040260200160405190810160405280929190818152602001828054600181600116156101000203166002900480156106465780601f1061061b57610100808354040283529160200191610646565b820191906000526020600020905b81548152906001019060200180831161062957829003601f168201915b50505050506116c9565b1561083f57600090505b600360ff1681101561083e577f671efc4d453d098fce8b6582a19b67882ce6c84f47a69b1df623dcd5bd7fc2518460676066018381548110151561069a57fe5b90600052602060002090600202016000016067606601848154811015156106bd57fe5b906000526020600020906002020160010160029054906101000a900460ff166040518080602001806020018460ff1660ff168152602001838103835286818151815260200191508051906020019080838360005b8381101561072c578082015181840152602081019050610711565b50505050905090810190601f1680156107595780820380516001836020036101000a031916815260200191505b508381038252858181546001816001161561010002031660029004815260200191508054600181600116156101000203166002900480156107db5780601f106107b0576101008083540402835291602001916107db565b820191906000526020600020905b8154815290600101906020018083116107be57829003601f168201915b50509550505050505060405180910390a1600260ff1660676066018281548110151561080357fe5b906000526020600020906002020160010160029054906101000a900460ff1660ff1614151561083157600091505b808060010191505061065a565b5b6108e68460676001018054600181600116156101000203166002900480601f0160208091040260200160405190810160405280929190818152602001828054600181600116156101000203166002900480156108dc5780601f106108b1576101008083540402835291602001916108dc565b820191906000526020600020905b8154815290600101906020018083116108bf57829003601f168201915b50505050506116c9565b15610ad557600090505b600360ff16811015610ad4577f671efc4d453d098fce8b6582a19b67882ce6c84f47a69b1df623dcd5bd7fc2518460006066018381548110151561093057fe5b906000526020600020906002020160000160006066018481548110151561095357fe5b906000526020600020906002020160010160029054906101000a900460ff166040518080602001806020018460ff1660ff168152602001838103835286818151815260200191508051906020019080838360005b838110156109c25780820151818401526020810190506109a7565b50505050905090810190601f1680156109ef5780820380516001836020036101000a031916815260200191505b50838103825285818154600181600116156101000203166002900481526020019150805460018160011615610100020316600290048015610a715780601f10610a4657610100808354040283529160200191610a71565b820191906000526020600020905b815481529060010190602001808311610a5457829003601f168201915b50509550505050505060405180910390a1600260ff16600060660182815481101515610a9957fe5b906000526020600020906002020160010160029054906101000a900460ff1660ff16141515610ac757600091505b80806001019150506108f0565b5b600115158215151415610bb8577f43e218a52ed7135da92840e41483c8c54d5d9ddbd14032901787304294237a7e84604051808060200180602001838103835260128152602001807f416c6c2073686970732073756e6b20666f720000000000000000000000000000815250602001838103825284818151815260200191508051906020019080838360005b83811015610b7c578082015181840152602081019050610b61565b50505050905090810190601f168015610ba95780820380516001836020036101000a031916815260200191505b50935050505060405180910390a15b8192505050919050565b6000606060006001018054600181600116156101000203166002900480601f016020809104026020016040519081016040528092919081815260200182805460018160011615610100020316600290048015610c5f5780601f10610c3457610100808354040283529160200191610c5f565b820191906000526020600020905b815481529060010190602001808311610c4257829003601f168201915b50505050509050600081511415610d9657336000800160006101000a81548173ffffffffffffffffffffffffffffffffffffffff021916908373ffffffffffffffffffffffffffffffffffffffff1602179055508260006001019080519060200190610ccc9291906134e8565b50600060d56000820160009054906101000a900473ffffffffffffffffffffffffffffffffffffffff168160000160006101000a81548173ffffffffffffffffffffffffffffffffffffffff021916908373ffffffffffffffffffffffffffffffffffffffff16021790555060018201816001019080546001816001161561010002031660029004610d5f929190613568565b50600282018160020190600a610d769291906135ef565b506066820181606601908054610d8d92919061363e565b50905050610e19565b33606760000160006101000a81548173ffffffffffffffffffffffffffffffffffffffff021916908373ffffffffffffffffffffffffffffffffffffffff1602179055508260676001019080519060200190610df39291906134e8565b50600160d460006101000a81548160ff02191690836002811115610e1357fe5b02179055505b33915050919050565b60008060008060008060008060016002811115610e3b57fe5b60d460009054906101000a900460ff166002811115610e5657fe5b141515610e6257600080fd5b610f098a60006001018054600181600116156101000203166002900480601f016020809104026020016040519081016040528092919081815260200182805460018160011615610100020316600290048015610eff5780601f10610ed457610100808354040283529160200191610eff565b820191906000526020600020905b815481529060010190602001808311610ee257829003601f168201915b50505050506116c9565b15610f175760009650610f1c565b606796505b610fc38b60ce6000018054600181600116156101000203166002900480601f016020809104026020016040519081016040528092919081815260200182805460018160011615610100020316600290048015610fb95780601f10610f8e57610100808354040283529160200191610fb9565b820191906000526020600020905b815481529060010190602001808311610f9c57829003601f168201915b50505050506116c9565b15610fef57866066016000815481101515610fda57fe5b90600052602060002090600202019750611193565b6110968b60d06000018054600181600116156101000203166002900480601f01602080910402602001604051908101604052809291908181526020018280546001816001161561010002031660029004801561108c5780601f106110615761010080835404028352916020019161108c565b820191906000526020600020905b81548152906001019060200180831161106f57829003601f168201915b50505050506116c9565b156110c2578660660160018154811015156110ad57fe5b90600052602060002090600202019750611192565b6111698b60d26000018054600181600116156101000203166002900480601f01602080910402602001604051908101604052809291908181526020018280546001816001161561010002031660029004801561115f5780601f106111345761010080835404028352916020019161115f565b820191906000526020600020905b81548152906001019060200180831161114257829003601f168201915b50505050506116c9565b156111915786606601600281548110151561118057fe5b906000526020600020906002020197505b5b5b7f85afe4fc04986b6cead49a25b21c3e8f8d92d902967e3fdb2491123dad04fc8c886000018960010160019054906101000a900460ff166040518080602001806020018460ff1681526020018381038352600f8152602001807f43757272656e74207368697020697300000000000000000000000000000000008152506020018381038252858181546001816001161561010002031660029004815260200191508054600181600116156101000203166002900480156112945780601f1061126957610100808354040283529160200191611294565b820191906000526020600020905b81548152906001019060200180831161127757829003601f168201915b505094505050505060405180910390a18c60ff1695508760010160009054906101000a900460ff168d0160ff1694508b60ff1693508760010160009054906101000a900460ff168c0160ff16925060008d60ff16101580156112fa575060008c60ff1610155b151561130557600080fd5b600a60ff168510801561131b5750600a60ff1683105b151561132657600080fd5b600060ff168860010160029054906101000a900460ff1660ff1614151561134c57600080fd5b600060ff168960ff1614156114a3578591505b8482101561149e57600060d560020183600a8110151561137b57fe5b600a02018d60ff16600a8110151561138f57fe5b015414151561139d57600080fd5b8760010160019054906101000a900460ff1660ff168760020183600a811015156113c357fe5b600a02018d60ff16600a811015156113d757fe5b018190555060018860010160026101000a81548160ff021916908360ff1602179055507f7640287f811ab1b4e37aaf4739f0b3d8f87a9e7efd4369dc5826ec5edaa8fc74828d8a60010160019054906101000a900460ff1660405180806020018581526020018460ff1681526020018360ff168152602001828103825260178152602001807f5368697020706c61636564206174206c6f636174696f6e00000000000000000081525060200194505050505060405180910390a1818060010192505061135f565b611550565b8391505b8282101561154f57600060d56002018e60ff16600a811015156114c657fe5b600a020183600a811015156114d757fe5b01541415156114e557600080fd5b8760010160019054906101000a900460ff1660ff16876002018e60ff16600a8110151561150e57fe5b600a020183600a8110151561151f57fe5b018190555060018860010160026101000a81548160ff021916908360ff16021790555081806001019250506114a7565b5b60019050600091505b6000606601805490508210156115ba57600060ff1660006066018381548110151561158057fe5b906000526020600020906002020160010160029054906101000a900460ff1660ff1614156115ad57600090505b8180600101925050611559565b600091505b60676066018054905082101561162057600060ff166067606601838154811015156115e657fe5b906000526020600020906002020160010160029054906101000a900460ff1660ff16141561161357600090505b81806001019250506115bf565b6001151581151514156116ba577f9af59cc428db7b85fee9d4f846623c39c1728a0cc1259e15df1bfd974540366f6040518080602001828103825260108152602001807f416c6c20536869707320506c616365640000000000000000000000000000000081525060200191505060405180910390a1600060d460006101000a81548160ff021916908360028111156116b457fe5b02179055505b50505050505050505050505050565b6000816040518082805190602001908083835b60208310151561170157805182526020820191506020810190506020830392506116dc565b6001836020036101000a038019825116818451168082178552505050505050905001915050604051809103902060001916836040518082805190602001908083835b6020831015156117685780518252602082019150602081019050602083039250611743565b6001836020036101000a03801982511681845116808217855250505050505090500191505060405180910390206000191614905092915050565b606080600160028111156117b257fe5b60d460009054906101000a900460ff1660028111156117cd57fe5b1415156117d957600080fd5b60006001016067600101818054600181600116156101000203166002900480601f0160208091040260200160405190810160405280929190818152602001828054600181600116156101000203166002900480156118785780601f1061184d57610100808354040283529160200191611878565b820191906000526020600020905b81548152906001019060200180831161185b57829003601f168201915b50505050509150808054600181600116156101000203166002900480601f0160208091040260200160405190810160405280929190818152602001828054600181600116156101000203166002900480156119145780601f106118e957610100808354040283529160200191611914565b820191906000526020600020905b8154815290600101906020018083116118f757829003601f168201915b50505050509050915091509091565b60606000806000600281111561193557fe5b60d460009054906101000a900460ff16600281111561195057fe5b14151561195c57600080fd5b611aa060d56001018054600181600116156101000203166002900480601f0160208091040260200160405190810160405280929190818152602001828054600181600116156101000203166002900480156119f85780601f106119cd576101008083540402835291602001916119f8565b820191906000526020600020905b8154815290600101906020018083116119db57829003601f168201915b505050505060006001018054600181600116156101000203166002900480601f016020809104026020016040519081016040528092919081815260200182805460018160011615610100020316600290048015611a965780601f10611a6b57610100808354040283529160200191611a96565b820191906000526020600020905b815481529060010190602001808311611a7957829003601f168201915b50505050506116c9565b1561246557600160676002018660ff16600a81101515611abc57fe5b600a02018560ff16600a81101515611ad057fe5b015410158015611b0b5750600560676002018660ff16600a81101515611af257fe5b600a02018560ff16600a81101515611b0657fe5b015411155b156121f1576040805190810160405280600381526020017f484954000000000000000000000000000000000000000000000000000000000081525061013c9080519060200190611b5c9291906134e8565b5060676002018560ff16600a81101515611b7257fe5b600a02018460ff16600a81101515611b8657fe5b01549150600960ff1660676002018660ff16600a81101515611ba457fe5b600a02018560ff16600a81101515611bb857fe5b0181905550606760660160018303815481101515611bd257fe5b9060005260206000209060020201600101600381819054906101000a900460ff168092919060010191906101000a81548160ff021916908360ff1602179055505081606760660160018403815481101515611c2957fe5b906000526020600020906002020160010160039054906101000a900460ff1660ff161415611e37576002606760660160018403815481101515611c6857fe5b906000526020600020906002020160010160026101000a81548160ff021916908360ff1602179055507fc7823d86aed598df035ea41d58540dc0caa7333d677c1a973b63b28109812e976067600101606760660160018503815481101515611ccc57fe5b906000526020600020906002020160000160405180806020018060200180602001848103845286818154600181600116156101000203166002900481526020019150805460018160011615610100020316600290048015611d6e5780601f10611d4357610100808354040283529160200191611d6e565b820191906000526020600020905b815481529060010190602001808311611d5157829003601f168201915b5050848103835285818154600181600116156101000203166002900481526020019150805460018160011615610100020316600290048015611df15780601f10611dc657610100808354040283529160200191611df1565b820191906000526020600020905b815481529060010190602001808311611dd457829003601f168201915b5050848103825260048152602001807f53554e4b000000000000000000000000000000000000000000000000000000008152506020019550505050505060405180910390a15b7fc853987460a693146896537e8c75eb17519cba9e2d443a1bbd33ccd6ae602c1861013c60d5600101604051808060200180602001838103835285818154600181600116156101000203166002900481526020019150805460018160011615610100020316600290048015611eed5780601f10611ec257610100808354040283529160200191611eed565b820191906000526020600020905b815481529060010190602001808311611ed057829003601f168201915b5050838103825284818154600181600116156101000203166002900481526020019150805460018160011615610100020316600290048015611f705780601f10611f4557610100808354040283529160200191611f70565b820191906000526020600020905b815481529060010190602001808311611f5357829003601f168201915b505094505050505060405180910390a161202660d56001018054600181600116156101000203166002900480601f01602080910402602001604051908101604052809291908181526020018280546001816001161561010002031660029004801561201c5780601f10611ff15761010080835404028352916020019161201c565b820191906000526020600020905b815481529060010190602001808311611fff57829003601f168201915b50505050506105a0565b1561214657600260d460006101000a81548160ff0219169083600281111561204a57fe5b02179055507f9bf3a3ee7743d8ce8ae78fd7450036ece624f1858a4af1b2ef0a509e14ec349360d5600101604051808060200180602001838103835260098152602001807f47616d6520576f6e2100000000000000000000000000000000000000000000008152506020018381038252848181546001816001161561010002031660029004815260200191508054600181600116156101000203166002900480156121365780601f1061210b57610100808354040283529160200191612136565b820191906000526020600020905b81548152906001019060200180831161211957829003601f168201915b5050935050505060405180910390a15b61214e61320f565b61013c8054600181600116156101000203166002900480601f0160208091040260200160405190810160405280929190818152602001828054600181600116156101000203166002900480156121e55780601f106121ba576101008083540402835291602001916121e5565b820191906000526020600020905b8154815290600101906020018083116121c857829003601f168201915b50505050509250612e21565b6040805190810160405280600481526020017f4d4953530000000000000000000000000000000000000000000000000000000081525061013c908051906020019061223d9291906134e8565b50600860ff1660676002018660ff16600a8110151561225857fe5b600a02018560ff16600a8110151561226c57fe5b01819055507fc853987460a693146896537e8c75eb17519cba9e2d443a1bbd33ccd6ae602c1861013c60d56001016040518080602001806020018381038352858181546001816001161561010002031660029004815260200191508054600181600116156101000203166002900480156123275780601f106122fc57610100808354040283529160200191612327565b820191906000526020600020905b81548152906001019060200180831161230a57829003601f168201915b50508381038252848181546001816001161561010002031660029004815260200191508054600181600116156101000203166002900480156123aa5780601f1061237f576101008083540402835291602001916123aa565b820191906000526020600020905b81548152906001019060200180831161238d57829003601f168201915b505094505050505060405180910390a16123c261320f565b61013c8054600181600116156101000203166002900480601f0160208091040260200160405190810160405280929190818152602001828054600181600116156101000203166002900480156124595780601f1061242e57610100808354040283529160200191612459565b820191906000526020600020905b81548152906001019060200180831161243c57829003601f168201915b50505050509250612e21565b600160006002018660ff16600a8110151561247c57fe5b600a02018560ff16600a8110151561249057fe5b0154101580156124cb5750600560006002018660ff16600a811015156124b257fe5b600a02018560ff16600a811015156124c657fe5b015411155b15612bb1576040805190810160405280600381526020017f484954000000000000000000000000000000000000000000000000000000000081525061013c908051906020019061251c9291906134e8565b5060006002018560ff16600a8110151561253257fe5b600a02018460ff16600a8110151561254657fe5b01549050600960ff1660006002018660ff16600a8110151561256457fe5b600a02018560ff16600a8110151561257857fe5b018190555060006066016001820381548110151561259257fe5b9060005260206000209060020201600101600381819054906101000a900460ff168092919060010191906101000a81548160ff021916908360ff16021790555050806000606601600183038154811015156125e957fe5b906000526020600020906002020160010160039054906101000a900460ff1660ff1614156127f757600260006066016001830381548110151561262857fe5b906000526020600020906002020160010160026101000a81548160ff021916908360ff1602179055507fc7823d86aed598df035ea41d58540dc0caa7333d677c1a973b63b28109812e97600060010160006066016001840381548110151561268c57fe5b90600052602060002090600202016000016040518080602001806020018060200184810384528681815460018160011615610100020316600290048152602001915080546001816001161561010002031660029004801561272e5780601f106127035761010080835404028352916020019161272e565b820191906000526020600020905b81548152906001019060200180831161271157829003601f168201915b50508481038352858181546001816001161561010002031660029004815260200191508054600181600116156101000203166002900480156127b15780601f10612786576101008083540402835291602001916127b1565b820191906000526020600020905b81548152906001019060200180831161279457829003601f168201915b5050848103825260048152602001807f53554e4b000000000000000000000000000000000000000000000000000000008152506020019550505050505060405180910390a15b7fc853987460a693146896537e8c75eb17519cba9e2d443a1bbd33ccd6ae602c1861013c60d56001016040518080602001806020018381038352858181546001816001161561010002031660029004815260200191508054600181600116156101000203166002900480156128ad5780601f10612882576101008083540402835291602001916128ad565b820191906000526020600020905b81548152906001019060200180831161289057829003601f168201915b50508381038252848181546001816001161561010002031660029004815260200191508054600181600116156101000203166002900480156129305780601f1061290557610100808354040283529160200191612930565b820191906000526020600020905b81548152906001019060200180831161291357829003601f168201915b505094505050505060405180910390a16129e660d56001018054600181600116156101000203166002900480601f0160208091040260200160405190810160405280929190818152602001828054600181600116156101000203166002900480156129dc5780601f106129b1576101008083540402835291602001916129dc565b820191906000526020600020905b8154815290600101906020018083116129bf57829003601f168201915b50505050506105a0565b15612b0657600260d460006101000a81548160ff02191690836002811115612a0a57fe5b02179055507f9bf3a3ee7743d8ce8ae78fd7450036ece624f1858a4af1b2ef0a509e14ec349360d5600101604051808060200180602001838103835260098152602001807f47616d6520576f6e210000000000000000000000000000000000000000000000815250602001838103825284818154600181600116156101000203166002900481526020019150805460018160011615610100020316600290048015612af65780601f10612acb57610100808354040283529160200191612af6565b820191906000526020600020905b815481529060010190602001808311612ad957829003601f168201915b5050935050505060405180910390a15b612b0e61320f565b61013c8054600181600116156101000203166002900480601f016020809104026020016040519081016040528092919081815260200182805460018160011615610100020316600290048015612ba55780601f10612b7a57610100808354040283529160200191612ba5565b820191906000526020600020905b815481529060010190602001808311612b8857829003601f168201915b50505050509250612e21565b6040805190810160405280600481526020017f4d4953530000000000000000000000000000000000000000000000000000000081525061013c9080519060200190612bfd9291906134e8565b50600860ff1660006002018660ff16600a81101515612c1857fe5b600a02018560ff16600a81101515612c2c57fe5b01819055507fc853987460a693146896537e8c75eb17519cba9e2d443a1bbd33ccd6ae602c1861013c60d5600101604051808060200180602001838103835285818154600181600116156101000203166002900481526020019150805460018160011615610100020316600290048015612ce75780601f10612cbc57610100808354040283529160200191612ce7565b820191906000526020600020905b815481529060010190602001808311612cca57829003601f168201915b5050838103825284818154600181600116156101000203166002900481526020019150805460018160011615610100020316600290048015612d6a5780601f10612d3f57610100808354040283529160200191612d6a565b820191906000526020600020905b815481529060010190602001808311612d4d57829003601f168201915b505094505050505060405180910390a1612d8261320f565b61013c8054600181600116156101000203166002900480601f016020809104026020016040519081016040528092919081815260200182805460018160011615610100020316600290048015612e195780601f10612dee57610100808354040283529160200191612e19565b820191906000526020600020905b815481529060010190602001808311612dfc57829003601f168201915b505050505092505b505092915050565b60008060008092505b600a60ff168360ff161015612ece57600091505b600a60ff168260ff161015612ec1576000806002018460ff16600a81101515612e6b57fe5b600a02018360ff16600a81101515612e7f57fe5b0181905550600060676002018460ff16600a81101515612e9b57fe5b600a02018360ff16600a81101515612eaf57fe5b01819055508180600101925050612e46565b8180600101925050612e32565b600090505b600360ff168160ff161015612fed576000806066018260ff16815481101515612ef857fe5b906000526020600020906002020160010160026101000a81548160ff021916908360ff1602179055506000806066018260ff16815481101515612f3757fe5b906000526020600020906002020160010160036101000a81548160ff021916908360ff160217905550600060676066018260ff16815481101515612f7757fe5b906000526020600020906002020160010160026101000a81548160ff021916908360ff160217905550600060676066018260ff16815481101515612fb757fe5b906000526020600020906002020160010160036101000a81548160ff021916908360ff1602179055508080600101915050612ed3565b6020604051908101604052806000815250600060010190805190602001906130169291906134e8565b506020604051908101604052806000815250606760010190805190602001906130409291906134e8565b50600060d56000820160009054906101000a900473ffffffffffffffffffffffffffffffffffffffff168160000160006101000a81548173ffffffffffffffffffffffffffffffffffffffff021916908373ffffffffffffffffffffffffffffffffffffffff160217905550600182018160010190805460018160011615610100020316600290046130d3929190613568565b50600282018160020190600a6130ea9291906135ef565b50606682018160660190805461310192919061363e565b50905050505050565b600080600090505b600a60ff168160ff161015613208576131c88360006001018054600181600116156101000203166002900480601f0160208091040260200160405190810160405280929190818152602001828054600181600116156101000203166002900480156131be5780601f10613193576101008083540402835291602001916131be565b820191906000526020600020905b8154815290600101906020018083116131a157829003601f168201915b50505050506116c9565b156131fb5760006002016009600a811015156131e057fe5b600a02016009600a811015156131f257fe5b01549150613209565b8080600101915050613112565b5b50919050565b61335360d56001018054600181600116156101000203166002900480601f0160208091040260200160405190810160405280929190818152602001828054600181600116156101000203166002900480156132ab5780601f10613280576101008083540402835291602001916132ab565b820191906000526020600020905b81548152906001019060200180831161328e57829003601f168201915b505050505060006001018054600181600116156101000203166002900480601f0160208091040260200160405190810160405280929190818152602001828054600181600116156101000203166002900480156133495780601f1061331e57610100808354040283529160200191613349565b820191906000526020600020905b81548152906001019060200180831161332c57829003601f168201915b50505050506116c9565b1561342157606760d56000820160009054906101000a900473ffffffffffffffffffffffffffffffffffffffff168160000160006101000a81548173ffffffffffffffffffffffffffffffffffffffff021916908373ffffffffffffffffffffffffffffffffffffffff160217905550600182018160010190805460018160011615610100020316600290046133ea929190613568565b50600282018160020190600a6134019291906135ef565b50606682018160660190805461341892919061363e565b509050506134e6565b600060d56000820160009054906101000a900473ffffffffffffffffffffffffffffffffffffffff168160000160006101000a81548173ffffffffffffffffffffffffffffffffffffffff021916908373ffffffffffffffffffffffffffffffffffffffff160217905550600182018160010190805460018160011615610100020316600290046134b3929190613568565b50600282018160020190600a6134ca9291906135ef565b5060668201816066019080546134e192919061363e565b509050505b565b828054600181600116156101000203166002900490600052602060002090601f016020900481019282601f1061352957805160ff1916838001178555613557565b82800160010185558215613557579182015b8281111561355657825182559160200191906001019061353b565b5b5090506135649190613776565b5090565b828054600181600116156101000203166002900490600052602060002090601f016020900481019282601f106135a157805485556135de565b828001600101855582156135de57600052602060002091601f016020900482015b828111156135dd5782548255916001019190600101906135c2565b5b5090506135eb9190613776565b5090565b82600a8002810192821561362d5791600a0282015b8281111561362c57828290600a61361c92919061379b565b5091600a019190600a0190613604565b5b50905061363a91906137d8565b5090565b8280548282559060005260206000209060020281019282156137655760005260206000209160020282015b828111156137645782826000820181600001908054600181600116156101000203166002900461369a929190613568565b506001820160009054906101000a900460ff168160010160006101000a81548160ff021916908360ff1602179055506001820160019054906101000a900460ff168160010160016101000a81548160ff021916908360ff1602179055506001820160029054906101000a900460ff168160010160026101000a81548160ff021916908360ff1602179055506001820160039054906101000a900460ff168160010160036101000a81548160ff021916908360ff160217905550505091600201919060020190613669565b5b5090506137729190613804565b5090565b61379891905b8082111561379457600081600090555060010161377c565b5090565b90565b82600a81019282156137c7579182015b828111156137c65782548255916001019190600101906137ab565b5b5090506137d49190613776565b5090565b61380191905b808211156137fd57600081816137f49190613883565b50600a016137de565b5090565b90565b61388091905b8082111561387c57600080820160006138239190613896565b6001820160006101000a81549060ff02191690556001820160016101000a81549060ff02191690556001820160026101000a81549060ff02191690556001820160036101000a81549060ff02191690555060020161380a565b5090565b90565b5080600a01906138939190613776565b50565b50805460018160011615610100020316600290046000825580601f106138bc57506138db565b601f0160209004906000526020600020908101906138da9190613776565b5b505600a165627a7a72305820bf5f64b427b18190f68d4a2b43af025a509444b75444c448687d8534641af7ca0029",
  "source": "pragma solidity ^0.4.23;\n\ncontract BattleshipGame {\n\n  enum GameState {InPlay, PlacingShips, GameEnded}\n\n  uint8 constant BOARDSIZE = 10;\n\n struct ship {\n      string shipName;\n      uint8 shipLength;\n      uint8 shipCode;\n      uint8 shipStatus;\n      uint8 shipDamage;\n  }\n\n  struct playerState {\n      address playerAddr;\n      string playerName;\n      uint[BOARDSIZE][BOARDSIZE] boardMatrix;\n      ship[] ships;\n  }\n\n  playerState player1;\n  playerState player2;\n\n  struct Game {\n    playerState player1;\n    playerState player2;\n    GameState gameState;\n  }\n\n  ship frigate;\n  ship submarine;\n  ship destroyer;\n\n  GameState gameState;\n\n  playerState currentPlayer;\n\n  string shotResult;\n\n  uint8 constant MISS = 8;\n  uint8 constant HIT = 9;\n\n  uint8 constant SHIP_FREE = 0;\n  uint8 constant SHIP_PLACED = 1;\n  uint8 constant SHIP_SUNK = 2;\n\n  uint8 constant HORIZONTAL = 0;\n  uint8 constant VERTICAL = 1;\n\n  uint8 constant NUM_OF_SHIPS = 3;\n\n  constructor() public {\n    gameState = GameState.PlacingShips;\n\n    frigate.shipName = \"FRIGATE\";\n    frigate.shipLength = 1;\n    frigate.shipCode = frigate.shipLength;\n    frigate.shipStatus = SHIP_FREE;\n    submarine.shipName = \"SUBMARINE\";\n    submarine.shipLength = 2;\n    submarine.shipCode = submarine.shipLength;\n    submarine.shipStatus = SHIP_FREE;\n    destroyer.shipName = \"DESTROYER\";\n    destroyer.shipLength = 3;\n    destroyer.shipCode = destroyer.shipLength;\n    destroyer.shipStatus = SHIP_FREE;\n\n    player1.ships.push(frigate);\n    player1.ships.push(submarine);\n    player1.ships.push(destroyer);\n    player2.ships.push(frigate);\n    player2.ships.push(submarine);\n    player2.ships.push(destroyer);\n  }\n\n  event LogShotResult(string, string);\n  event LogPlaceLegality(string, string);\n  event LogShipStartStop(uint,uint);\n  event LogAllShipsPlaced(string);\n  event LogShipPlaced(string,uint,uint,uint);\n  event LogCurrentShip(string,string,uint);\n  event LogShipSunk(string,string,string);\n  event LogGameWon(string,string);\n  event LogAllShipsSunk(string,string);\n  event LogCheckShipStatus(string,string,uint8);\n\n\n  modifier isGameInPlay {\n    require(gameState == GameState.InPlay);\n    _;\n  }\n\n modifier hasGameEnded {\n    require(gameState == GameState.GameEnded);\n    _;\n  }\n\n  modifier playersRegistered {\n      require(gameState == GameState.PlacingShips);\n      _;\n  }\n\n  function returnPlayers() playersRegistered constant public returns (string, string) {\n    return (player1.playerName, player2.playerName);\n  }\n\n  function registerPlayer(string playerName) public returns (address) {\n\n    bytes memory tempEmptyStringTest = bytes(player1.playerName);\n\n    if (tempEmptyStringTest.length == 0) {\n      player1.playerAddr = msg.sender;\n      player1.playerName = playerName;\n      currentPlayer = player1;\n    } else {\n      player2.playerAddr = msg.sender;\n      player2.playerName = playerName;\n      gameState = GameState.PlacingShips;\n    }\n    return (msg.sender);\n  }\n\n  function placeShip(uint8 x, uint8 y, string shipType, string playerName, uint8 direction) public playersRegistered {\n\n      ship currentShip;\n\n      //player1.playerName = \"Chris\";\n\n      playerState placingPlayer;\n\n      if (compareStrings(playerName, player1.playerName)) {\n          placingPlayer = player1;\n      } else {\n          placingPlayer = player2;\n      }\n\n      if (compareStrings(shipType, frigate.shipName)) {\n          currentShip = placingPlayer.ships[0];\n      } else if (compareStrings(shipType, submarine.shipName)) {\n          currentShip = placingPlayer.ships[1];\n        } else if (compareStrings(shipType, destroyer.shipName)) {\n              currentShip = placingPlayer.ships[2];\n          }\n      emit LogCurrentShip(\"Current ship is\",currentShip.shipName, currentShip.shipCode);\n\n      uint startSquareX = x;\n      uint endSquareX = x+currentShip.shipLength;\n      uint startSquareY = y;\n      uint endSquareY = y+currentShip.shipLength;\n\n      require(x >= 0 && y >= 0);\n      require(endSquareX < BOARDSIZE && endSquareY < BOARDSIZE);\n      require(currentShip.shipStatus == SHIP_FREE);\n\n\n\n            if (direction == HORIZONTAL) {\n              for (uint i=startSquareX; i<endSquareX; i++) {\n                require(currentPlayer.boardMatrix[i][y] == 0);\n                placingPlayer.boardMatrix[i][y] = currentShip.shipCode;\n                currentShip.shipStatus = SHIP_PLACED;\n                emit LogShipPlaced(\"Ship placed at location\",i,y,currentShip.shipCode);\n              }\n            } else {\n              for (i=startSquareY; i<endSquareY; i++) {\n                require(currentPlayer.boardMatrix[x][i] == 0);\n                placingPlayer.boardMatrix[x][i] = currentShip.shipCode;\n                currentShip.shipStatus = SHIP_PLACED;\n              }\n            }\n\n\n      bool allShipsPlaced = true;\n      for (i=0; i<player1.ships.length; i++) {\n          if (player1.ships[i].shipStatus == SHIP_FREE) {\n            allShipsPlaced = false;\n          }\n      }\n      for (i=0; i<player2.ships.length; i++) {\n        if (player2.ships[i].shipStatus == SHIP_FREE) {\n          allShipsPlaced = false;\n        }\n      }\n\n      if (allShipsPlaced == true) {\n          emit LogAllShipsPlaced(\"All Ships Placed\");\n          gameState = GameState.InPlay;\n      }\n  }\n\n  function switchCurrentPlayer() internal {\n      if (compareStrings(currentPlayer.playerName, player1.playerName)) {\n          currentPlayer = player2;\n      } else {\n          currentPlayer = player1;\n      }\n  }\n\n  function checkIfWon(string playerName_) returns (bool) {\n\n      bool allShipsSunk = true;\n\n      if (compareStrings(playerName_, player1.playerName)) {\n          for (uint i=0; i<NUM_OF_SHIPS; i++) {\n            emit LogCheckShipStatus(playerName_,player2.ships[i].shipName,player2.ships[i].shipStatus);\n            if (player2.ships[i].shipStatus != SHIP_SUNK) {\n              allShipsSunk = false;\n            }\n           }\n      }\n\n      if (compareStrings(playerName_, player2.playerName)) {\n          for (i=0; i<NUM_OF_SHIPS; i++) {\n            emit LogCheckShipStatus(playerName_,player1.ships[i].shipName,player1.ships[i].shipStatus);\n            if (player1.ships[i].shipStatus != SHIP_SUNK) {\n              allShipsSunk = false;\n            }\n           }\n      }\n\n      if (allShipsSunk == true) {\n          emit LogAllShipsSunk(\"All ships sunk for\", playerName_);\n      }\n\n      return allShipsSunk;\n  }\n\n  function fireShot(uint8 x, uint8 y) isGameInPlay public returns (string) {\n\n      if (compareStrings(currentPlayer.playerName, player1.playerName)) {\n          if (player2.boardMatrix[x][y] >= 1 && player2.boardMatrix[x][y] <= 5) {\n              shotResult = \"HIT\";\n              uint player2ShipType = player2.boardMatrix[x][y];\n\n              player2.boardMatrix[x][y] = HIT;\n              player2.ships[player2ShipType-1].shipDamage++;\n              if (player2.ships[player2ShipType-1].shipDamage == player2ShipType) {\n                  player2.ships[player2ShipType-1].shipStatus = SHIP_SUNK;\n                  emit LogShipSunk(player2.playerName, player2.ships[player2ShipType-1].shipName, \"SUNK\");\n              }\n\n              emit LogShotResult(shotResult,currentPlayer.playerName);\n              if (checkIfWon(currentPlayer.playerName)) {\n                  gameState = GameState.GameEnded;\n                  emit LogGameWon(\"Game Won!\",currentPlayer.playerName);\n              }\n              switchCurrentPlayer();\n              return (shotResult);\n          } else {\n              shotResult = \"MISS\";\n              player2.boardMatrix[x][y] = MISS;\n              emit LogShotResult(shotResult,currentPlayer.playerName);\n\n              switchCurrentPlayer();\n              return (shotResult);\n          }\n      } else {\n          if (player1.boardMatrix[x][y] >= 1 && player1.boardMatrix[x][y] <= 5) {\n              shotResult = \"HIT\";\n              uint player1ShipType = player1.boardMatrix[x][y];\n\n              player1.boardMatrix[x][y] = HIT;\n              player1.ships[player1ShipType-1].shipDamage++;\n              if (player1.ships[player1ShipType-1].shipDamage == player1ShipType) {\n                  player1.ships[player1ShipType-1].shipStatus = SHIP_SUNK;\n                  emit LogShipSunk(player1.playerName, player1.ships[player1ShipType-1].shipName, \"SUNK\");\n              }\n              emit LogShotResult(shotResult,currentPlayer.playerName);\n              if (checkIfWon(currentPlayer.playerName)) {\n                  gameState = GameState.GameEnded;\n                  emit LogGameWon(\"Game Won!\", currentPlayer.playerName);\n              }\n              switchCurrentPlayer();\n              return shotResult;\n          } else {\n              shotResult = 'MISS';\n              player1.boardMatrix[x][y] = MISS;\n              emit LogShotResult(shotResult,currentPlayer.playerName);\n              switchCurrentPlayer();\n              return shotResult;\n          }\n      }\n  }\n\n  function clearGame() public {\n     for (uint8 x=0; x<BOARDSIZE; y++) {\n       for (uint8 y=0; y<BOARDSIZE; y++) {\n         player1.boardMatrix[x][y] = 0;\n         player2.boardMatrix[x][y] = 0;\n       }\n     }\n    for (uint8 i=0; i<NUM_OF_SHIPS; i++) {\n       player1.ships[i].shipStatus = SHIP_FREE;\n       player1.ships[i].shipDamage = 0;\n       player2.ships[i].shipStatus = SHIP_FREE;\n       player2.ships[i].shipDamage = 0;\n     }\n\n     player1.playerName = '';\n     player2.playerName = '';\n\n    currentPlayer = player1;\n\n  }\n\n  function returnBoard(string playerName_) public constant returns (uint) {\n      for (uint8 i=0; i<BOARDSIZE; i++) {\n          if ( compareStrings(playerName_,player1.playerName)) {\n              return player1.boardMatrix[9][9];\n          }\n      }\n  }\n\n  function compareStrings (string a, string b) view returns (bool) {\n       return keccak256(a) == keccak256(b);\n  }\n\n\n}\n",
  "sourcePath": "/Users/chrismilner/Documents/Bluemoon Consulting/projects/Battleships/contracts/BattleshipGame.sol",
  "compiler": {
    "name": "solc",
    "version": "0.4.24+commit.e67f0147.Emscripten.clang"
  },
  "schemaVersion": "2.0.0",
  "updatedAt": "2018-08-08T15:23:42.542Z"
}